{"contracts/SessionKeyManager.sol":{"SessionKeyManager":{"abi":[{"inputs":[],"stateMutability":"nonpayable","type":"constructor"},{"anonymous":false,"inputs":[{"indexed":true,"internalType":"string","name":"appId","type":"string"},{"indexed":true,"internalType":"address","name":"owner","type":"address"}],"name":"AppRegistered","type":"event"},{"anonymous":false,"inputs":[{"indexed":true,"internalType":"bytes32","name":"sessionKey","type":"bytes32"},{"indexed":true,"internalType":"string","name":"appId","type":"string"},{"indexed":false,"internalType":"uint256","name":"validUntil","type":"uint256"}],"name":"SessionCreated","type":"event"},{"anonymous":false,"inputs":[{"indexed":true,"internalType":"bytes32","name":"sessionKey","type":"bytes32"},{"indexed":true,"internalType":"string","name":"appId","type":"string"}],"name":"SessionRevoked","type":"event"},{"inputs":[{"internalType":"string","name":"","type":"string"}],"name":"appOwners","outputs":[{"internalType":"address","name":"","type":"address"}],"stateMutability":"view","type":"function"},{"inputs":[{"internalType":"bytes32[]","name":"_sessionKeys","type":"bytes32[]"}],"name":"cleanupExpiredSessions","outputs":[],"stateMutability":"nonpayable","type":"function"},{"inputs":[{"internalType":"bytes32","name":"_sessionKey","type":"bytes32"},{"internalType":"string","name":"_appId","type":"string"},{"internalType":"uint256","name":"_validUntil","type":"uint256"},{"internalType":"bytes32","name":"_nullifierHash","type":"bytes32"}],"name":"createSession","outputs":[{"internalType":"bool","name":"","type":"bool"}],"stateMutability":"nonpayable","type":"function"},{"inputs":[{"internalType":"bytes32","name":"_sessionKey","type":"bytes32"}],"name":"getSessionDetails","outputs":[{"components":[{"internalType":"string","name":"appId","type":"string"},{"internalType":"uint256","name":"validUntil","type":"uint256"},{"internalType":"bytes32","name":"nullifierHash","type":"bytes32"},{"internalType":"bool","name":"isActive","type":"bool"},{"internalType":"uint256","name":"createdAt","type":"uint256"}],"internalType":"struct SessionKeyManager.Session","name":"session","type":"tuple"}],"stateMutability":"view","type":"function"},{"inputs":[{"internalType":"string","name":"_appId","type":"string"},{"internalType":"bytes32","name":"_nullifierHash","type":"bytes32"}],"name":"isNullifierUsed","outputs":[{"internalType":"bool","name":"used","type":"bool"}],"stateMutability":"view","type":"function"},{"inputs":[{"internalType":"string","name":"appId","type":"string"}],"name":"registerApp","outputs":[],"stateMutability":"nonpayable","type":"function"},{"inputs":[{"internalType":"bytes32","name":"_sessionKey","type":"bytes32"}],"name":"retrieveConfidentialData","outputs":[{"internalType":"bytes","name":"encryptedData","type":"bytes"}],"stateMutability":"view","type":"function"},{"inputs":[{"internalType":"bytes32","name":"_sessionKey","type":"bytes32"}],"name":"revokeSession","outputs":[{"internalType":"bool","name":"","type":"bool"}],"stateMutability":"nonpayable","type":"function"},{"inputs":[{"internalType":"bytes32","name":"_sessionKey","type":"bytes32"},{"internalType":"bytes","name":"_encryptedData","type":"bytes"}],"name":"storeConfidentialData","outputs":[],"stateMutability":"nonpayable","type":"function"},{"inputs":[{"internalType":"bytes32","name":"_sessionKey","type":"bytes32"}],"name":"verifySession","outputs":[{"internalType":"bool","name":"isValid","type":"bool"},{"internalType":"string","name":"appId","type":"string"},{"internalType":"uint256","name":"validUntil","type":"uint256"}],"stateMutability":"view","type":"function"},{"inputs":[],"name":"version","outputs":[{"internalType":"string","name":"","type":"string"}],"stateMutability":"pure","type":"function"}],"evm":{"bytecode":{"linkReferences":{},"object":"608060405234801561001057600080fd5b506112ab806100206000396000f3fe608060405234801561001057600080fd5b50600436106100a95760003560e01c8063a7fed38511610071578063a7fed38514610157578063ab0a6bea1461016a578063b3a55f641461018c578063c718c1e51461019f578063f4241c02146101eb578063fe5bce23146101fe57600080fd5b80635290cf96146100ae57806353a93b92146100c357806354fd4d50146100ec5780637a94061b1461012157806380f839b114610144575b600080fd5b6100c16100bc366004610cbc565b610211565b005b6100d66100d1366004610d62565b6102f2565b6040516100e39190610dcb565b60405180910390f35b60408051808201909152601081526f0625c605c605ae6d0c2c8deeec2eae8d60831b60208201525b6040516100e39190610e1d565b61013461012f366004610eaf565b61046b565b60405190151581526020016100e3565b6100c1610152366004610f06565b6106aa565b610134610165366004610d62565b610775565b61017d610178366004610d62565b6108b7565b6040516100e393929190610f61565b6100c161019a366004610f8c565b6109ef565b6101d36101ad366004610f8c565b80516020818301810180516002825292820191909301209152546001600160a01b031681565b6040516001600160a01b0390911681526020016100e3565b6101346101f9366004610fc9565b610aea565b61011461020c366004610d62565b610b22565b60005b81518110156102ee5760008060008484815181106102345761023461100e565b6020026020010151815260200190815260200160002090508060030160009054906101000a900460ff16801561026d5750806001015442115b156102db5760038101805460ff1916905560405161028c908290611058565b60405180910390208383815181106102a6576102a661100e565b60200260200101517f346e0efe5d8dce1a1f5b39bf4203465b2acf19bb3d563acb91d5b4f6175dc81460405160405180910390a35b50806102e6816110ce565b915050610214565b5050565b6040805160a081018252606080825260006020830181905292820183905281018290526080810191909152600082815260208190526040902060030154829060ff166103595760405162461bcd60e51b8152600401610350906110f5565b60405180910390fd5b60008181526020819052604090206001015442111561038a5760405162461bcd60e51b815260040161035090611121565b60008381526020819052604090819020815160a081019092528054829082906103b290611024565b80601f01602080910402602001604051908101604052809291908181526020018280546103de90611024565b801561042b5780601f106104005761010080835404028352916020019161042b565b820191906000526020600020905b81548152906001019060200180831161040e57829003601f168201915b50505091835250506001820154602082015260028201546040820152600382015460ff161515606082015260049091015460809091015291505b50919050565b600060018460405161047d919061114a565b90815260408051602092819003830190206000858152925290205460ff16156104e15760405162461bcd60e51b8152602060048201526016602482015275139d5b1b1a599a595c88185b1c9958591e481d5cd95960521b6044820152606401610350565b60008581526020819052604090206003015460ff16156105435760405162461bcd60e51b815260206004820152601a60248201527f53657373696f6e206b657920616c7265616479206578697374730000000000006044820152606401610350565b4283116105925760405162461bcd60e51b815260206004820152601760248201527f496e76616c69642076616c696469747920706572696f640000000000000000006044820152606401610350565b6040805160a08101825285815260208082018690528183018590526001606083015242608083015260008881529081905291909120815181906105d590826111b5565b50602082015181600101556040820151816002015560608201518160030160006101000a81548160ff0219169083151502179055506080820151816004015590505060018085604051610628919061114a565b9081526040805160209281900383018120600087815293529120805460ff19169215159290921790915561065d90859061114a565b6040518091039020857f66eabf34c12ca9dae904dadf111a215b848d2d323e2220aaf1b24f9071bb4ccf8560405161069791815260200190565b60405180910390a3506001949350505050565b600082815260208190526040902060030154829060ff166106dd5760405162461bcd60e51b8152600401610350906110f5565b60008181526020819052604090206001015442111561070e5760405162461bcd60e51b815260040161035090611121565b60008360405160200161073d91815270636f6e666964656e7469616c5f6461746160781b602082015260310190565b60408051601f19818403018152918152815160209283012060008181526003909352912090915061076e84826111b5565b5050505050565b600081815260208190526040812060030154829060ff166107a85760405162461bcd60e51b8152600401610350906110f5565b6000818152602081905260409020600101544211156107d95760405162461bcd60e51b815260040161035090611121565b60008381526020819052604090819020905133906002906107fb908490611058565b908152604051908190036020019020546001600160a01b0316146108615760405162461bcd60e51b815260206004820152601860248201527f4e6f7420617574686f72697a656420746f207265766f6b6500000000000000006044820152606401610350565b60038101805460ff1916905560405161087b908290611058565b6040519081900381209085907f346e0efe5d8dce1a1f5b39bf4203465b2acf19bb3d563acb91d5b4f6175dc81490600090a35060019392505050565b600060606000806000808681526020019081526020016000206040518060a00160405290816000820180546108eb90611024565b80601f016020809104026020016040519081016040528092919081815260200182805461091790611024565b80156109645780601f1061093957610100808354040283529160200191610964565b820191906000526020600020905b81548152906001019060200180831161094757829003601f168201915b50505091835250506001820154602082015260028201546040820152600382015460ff16151560608083019190915260049092015460809091015281015190915080156109b5575080602001514211155b156109d05780516020909101516001945090925090506109e8565b50506040805160208101909152600080825292509050815b9193909250565b60006001600160a01b0316600282604051610a0a919061114a565b908152604051908190036020019020546001600160a01b031614610a695760405162461bcd60e51b8152602060048201526016602482015275105c1c08185b1c9958591e481c9959da5cdd195c995960521b6044820152606401610350565b33600282604051610a7a919061114a565b90815260405190819003602001812080546001600160a01b03939093166001600160a01b0319909316929092179091553390610ab790839061114a565b604051908190038120907f2478f2ae0a803f7b69bac6ab2225b6fa2c7ac8dec03b79698cd0e59c0d9e180090600090a350565b6000600183604051610afc919061114a565b908152604080516020928190038301902060009485529091529091205460ff1692915050565b600081815260208190526040902060030154606090829060ff16610b585760405162461bcd60e51b8152600401610350906110f5565b600081815260208190526040902060010154421115610b895760405162461bcd60e51b815260040161035090611121565b600083604051602001610bb891815270636f6e666964656e7469616c5f6461746160781b602082015260310190565b604051602081830303815290604052805190602001209050600360008281526020019081526020016000208054610bee90611024565b80601f0160208091040260200160405190810160405280929190818152602001828054610c1a90611024565b8015610c675780601f10610c3c57610100808354040283529160200191610c67565b820191906000526020600020905b815481529060010190602001808311610c4a57829003601f168201915b505050505092505050919050565b634e487b7160e01b600052604160045260246000fd5b604051601f8201601f1916810167ffffffffffffffff81118282101715610cb457610cb4610c75565b604052919050565b60006020808385031215610ccf57600080fd5b823567ffffffffffffffff80821115610ce757600080fd5b818501915085601f830112610cfb57600080fd5b813581811115610d0d57610d0d610c75565b8060051b9150610d1e848301610c8b565b8181529183018401918481019088841115610d3857600080fd5b938501935b83851015610d5657843582529385019390850190610d3d565b98975050505050505050565b600060208284031215610d7457600080fd5b5035919050565b60005b83811015610d96578181015183820152602001610d7e565b50506000910152565b60008151808452610db7816020860160208601610d7b565b601f01601f19169290920160200192915050565b602081526000825160a06020840152610de760c0840182610d9f565b90506020840151604084015260408401516060840152606084015115156080840152608084015160a08401528091505092915050565b602081526000610e306020830184610d9f565b9392505050565b600067ffffffffffffffff831115610e5157610e51610c75565b610e64601f8401601f1916602001610c8b565b9050828152838383011115610e7857600080fd5b828260208301376000602084830101529392505050565b600082601f830112610ea057600080fd5b610e3083833560208501610e37565b60008060008060808587031215610ec557600080fd5b84359350602085013567ffffffffffffffff811115610ee357600080fd5b610eef87828801610e8f565b949794965050505060408301359260600135919050565b60008060408385031215610f1957600080fd5b82359150602083013567ffffffffffffffff811115610f3757600080fd5b8301601f81018513610f4857600080fd5b610f5785823560208401610e37565b9150509250929050565b8315158152606060208201526000610f7c6060830185610d9f565b9050826040830152949350505050565b600060208284031215610f9e57600080fd5b813567ffffffffffffffff811115610fb557600080fd5b610fc184828501610e8f565b949350505050565b60008060408385031215610fdc57600080fd5b823567ffffffffffffffff811115610ff357600080fd5b610fff85828601610e8f565b95602094909401359450505050565b634e487b7160e01b600052603260045260246000fd5b600181811c9082168061103857607f821691505b60208210810361046557634e487b7160e01b600052602260045260246000fd5b600080835461106681611024565b6001828116801561107e5760018114611093576110c2565b60ff19841687528215158302870194506110c2565b8760005260208060002060005b858110156110b95781548a8201529084019082016110a0565b50505082870194505b50929695505050505050565b6000600182016110ee57634e487b7160e01b600052601160045260246000fd5b5060010190565b60208082526012908201527153657373696f6e206e6f742061637469766560701b604082015260600190565b6020808252600f908201526e14d95cdcda5bdb88195e1c1a5c9959608a1b604082015260600190565b6000825161115c818460208701610d7b565b9190910192915050565b601f8211156111b057600081815260208120601f850160051c8101602086101561118d5750805b601f850160051c820191505b818110156111ac57828155600101611199565b5050505b505050565b815167ffffffffffffffff8111156111cf576111cf610c75565b6111e3816111dd8454611024565b84611166565b602080601f83116001811461121857600084156112005750858301515b600019600386901b1c1916600185901b1785556111ac565b600085815260208120601f198616915b8281101561124757888601518255948401946001909101908401611228565b50858210156112655787850151600019600388901b60f8161c191681555b5050505050600190811b0190555056fea26469706673582212207f87fd5211d99a31b115ce951361da17ef661e3603138db0a29b9eb5c3f2ee0e64736f6c63430008130033","opcodes":"PUSH1 0x80 PUSH1 0x40 MSTORE CALLVALUE DUP1 ISZERO PUSH2 0x10 JUMPI PUSH1 0x0 DUP1 REVERT JUMPDEST POP PUSH2 0x12AB DUP1 PUSH2 0x20 PUSH1 0x0 CODECOPY PUSH1 0x0 RETURN INVALID PUSH1 0x80 PUSH1 0x40 MSTORE CALLVALUE DUP1 ISZERO PUSH2 0x10 JUMPI PUSH1 0x0 DUP1 REVERT JUMPDEST POP PUSH1 0x4 CALLDATASIZE LT PUSH2 0xA9 JUMPI PUSH1 0x0 CALLDATALOAD PUSH1 0xE0 SHR DUP1 PUSH4 0xA7FED385 GT PUSH2 0x71 JUMPI DUP1 PUSH4 0xA7FED385 EQ PUSH2 0x157 JUMPI DUP1 PUSH4 0xAB0A6BEA EQ PUSH2 0x16A JUMPI DUP1 PUSH4 0xB3A55F64 EQ PUSH2 0x18C JUMPI DUP1 PUSH4 0xC718C1E5 EQ PUSH2 0x19F JUMPI DUP1 PUSH4 0xF4241C02 EQ PUSH2 0x1EB JUMPI DUP1 PUSH4 0xFE5BCE23 EQ PUSH2 0x1FE JUMPI PUSH1 0x0 DUP1 REVERT JUMPDEST DUP1 PUSH4 0x5290CF96 EQ PUSH2 0xAE JUMPI DUP1 PUSH4 0x53A93B92 EQ PUSH2 0xC3 JUMPI DUP1 PUSH4 0x54FD4D50 EQ PUSH2 0xEC JUMPI DUP1 PUSH4 0x7A94061B EQ PUSH2 0x121 JUMPI DUP1 PUSH4 0x80F839B1 EQ PUSH2 0x144 JUMPI JUMPDEST PUSH1 0x0 DUP1 REVERT JUMPDEST PUSH2 0xC1 PUSH2 0xBC CALLDATASIZE PUSH1 0x4 PUSH2 0xCBC JUMP JUMPDEST PUSH2 0x211 JUMP JUMPDEST STOP JUMPDEST PUSH2 0xD6 PUSH2 0xD1 CALLDATASIZE PUSH1 0x4 PUSH2 0xD62 JUMP JUMPDEST PUSH2 0x2F2 JUMP JUMPDEST PUSH1 0x40 MLOAD PUSH2 0xE3 SWAP2 SWAP1 PUSH2 0xDCB JUMP JUMPDEST PUSH1 0x40 MLOAD DUP1 SWAP2 SUB SWAP1 RETURN JUMPDEST PUSH1 0x40 DUP1 MLOAD DUP1 DUP3 ADD SWAP1 SWAP2 MSTORE PUSH1 0x10 DUP2 MSTORE PUSH16 0x625C605C605AE6D0C2C8DEEEC2EAE8D PUSH1 0x83 SHL PUSH1 0x20 DUP3 ADD MSTORE JUMPDEST PUSH1 0x40 MLOAD PUSH2 0xE3 SWAP2 SWAP1 PUSH2 0xE1D JUMP JUMPDEST PUSH2 0x134 PUSH2 0x12F CALLDATASIZE PUSH1 0x4 PUSH2 0xEAF JUMP JUMPDEST PUSH2 0x46B JUMP JUMPDEST PUSH1 0x40 MLOAD SWAP1 ISZERO ISZERO DUP2 MSTORE PUSH1 0x20 ADD PUSH2 0xE3 JUMP JUMPDEST PUSH2 0xC1 PUSH2 0x152 CALLDATASIZE PUSH1 0x4 PUSH2 0xF06 JUMP JUMPDEST PUSH2 0x6AA JUMP JUMPDEST PUSH2 0x134 PUSH2 0x165 CALLDATASIZE PUSH1 0x4 PUSH2 0xD62 JUMP JUMPDEST PUSH2 0x775 JUMP JUMPDEST PUSH2 0x17D PUSH2 0x178 CALLDATASIZE PUSH1 0x4 PUSH2 0xD62 JUMP JUMPDEST PUSH2 0x8B7 JUMP JUMPDEST PUSH1 0x40 MLOAD PUSH2 0xE3 SWAP4 SWAP3 SWAP2 SWAP1 PUSH2 0xF61 JUMP JUMPDEST PUSH2 0xC1 PUSH2 0x19A CALLDATASIZE PUSH1 0x4 PUSH2 0xF8C JUMP JUMPDEST PUSH2 0x9EF JUMP JUMPDEST PUSH2 0x1D3 PUSH2 0x1AD CALLDATASIZE PUSH1 0x4 PUSH2 0xF8C JUMP JUMPDEST DUP1 MLOAD PUSH1 0x20 DUP2 DUP4 ADD DUP2 ADD DUP1 MLOAD PUSH1 0x2 DUP3 MSTORE SWAP3 DUP3 ADD SWAP2 SWAP1 SWAP4 ADD KECCAK256 SWAP2 MSTORE SLOAD PUSH1 0x1 PUSH1 0x1 PUSH1 0xA0 SHL SUB AND DUP2 JUMP JUMPDEST PUSH1 0x40 MLOAD PUSH1 0x1 PUSH1 0x1 PUSH1 0xA0 SHL SUB SWAP1 SWAP2 AND DUP2 MSTORE PUSH1 0x20 ADD PUSH2 0xE3 JUMP JUMPDEST PUSH2 0x134 PUSH2 0x1F9 CALLDATASIZE PUSH1 0x4 PUSH2 0xFC9 JUMP JUMPDEST PUSH2 0xAEA JUMP JUMPDEST PUSH2 0x114 PUSH2 0x20C CALLDATASIZE PUSH1 0x4 PUSH2 0xD62 JUMP JUMPDEST PUSH2 0xB22 JUMP JUMPDEST PUSH1 0x0 JUMPDEST DUP2 MLOAD DUP2 LT ISZERO PUSH2 0x2EE JUMPI PUSH1 0x0 DUP1 PUSH1 0x0 DUP5 DUP5 DUP2 MLOAD DUP2 LT PUSH2 0x234 JUMPI PUSH2 0x234 PUSH2 0x100E JUMP JUMPDEST PUSH1 0x20 MUL PUSH1 0x20 ADD ADD MLOAD DUP2 MSTORE PUSH1 0x20 ADD SWAP1 DUP2 MSTORE PUSH1 0x20 ADD PUSH1 0x0 KECCAK256 SWAP1 POP DUP1 PUSH1 0x3 ADD PUSH1 0x0 SWAP1 SLOAD SWAP1 PUSH2 0x100 EXP SWAP1 DIV PUSH1 0xFF AND DUP1 ISZERO PUSH2 0x26D JUMPI POP DUP1 PUSH1 0x1 ADD SLOAD TIMESTAMP GT JUMPDEST ISZERO PUSH2 0x2DB JUMPI PUSH1 0x3 DUP2 ADD DUP1 SLOAD PUSH1 0xFF NOT AND SWAP1 SSTORE PUSH1 0x40 MLOAD PUSH2 0x28C SWAP1 DUP3 SWAP1 PUSH2 0x1058 JUMP JUMPDEST PUSH1 0x40 MLOAD DUP1 SWAP2 SUB SWAP1 KECCAK256 DUP4 DUP4 DUP2 MLOAD DUP2 LT PUSH2 0x2A6 JUMPI PUSH2 0x2A6 PUSH2 0x100E JUMP JUMPDEST PUSH1 0x20 MUL PUSH1 0x20 ADD ADD MLOAD PUSH32 0x346E0EFE5D8DCE1A1F5B39BF4203465B2ACF19BB3D563ACB91D5B4F6175DC814 PUSH1 0x40 MLOAD PUSH1 0x40 MLOAD DUP1 SWAP2 SUB SWAP1 LOG3 JUMPDEST POP DUP1 PUSH2 0x2E6 DUP2 PUSH2 0x10CE JUMP JUMPDEST SWAP2 POP POP PUSH2 0x214 JUMP JUMPDEST POP POP JUMP JUMPDEST PUSH1 0x40 DUP1 MLOAD PUSH1 0xA0 DUP2 ADD DUP3 MSTORE PUSH1 0x60 DUP1 DUP3 MSTORE PUSH1 0x0 PUSH1 0x20 DUP4 ADD DUP2 SWAP1 MSTORE SWAP3 DUP3 ADD DUP4 SWAP1 MSTORE DUP2 ADD DUP3 SWAP1 MSTORE PUSH1 0x80 DUP2 ADD SWAP2 SWAP1 SWAP2 MSTORE PUSH1 0x0 DUP3 DUP2 MSTORE PUSH1 0x20 DUP2 SWAP1 MSTORE PUSH1 0x40 SWAP1 KECCAK256 PUSH1 0x3 ADD SLOAD DUP3 SWAP1 PUSH1 0xFF AND PUSH2 0x359 JUMPI PUSH1 0x40 MLOAD PUSH3 0x461BCD PUSH1 0xE5 SHL DUP2 MSTORE PUSH1 0x4 ADD PUSH2 0x350 SWAP1 PUSH2 0x10F5 JUMP JUMPDEST PUSH1 0x40 MLOAD DUP1 SWAP2 SUB SWAP1 REVERT JUMPDEST PUSH1 0x0 DUP2 DUP2 MSTORE PUSH1 0x20 DUP2 SWAP1 MSTORE PUSH1 0x40 SWAP1 KECCAK256 PUSH1 0x1 ADD SLOAD TIMESTAMP GT ISZERO PUSH2 0x38A JUMPI PUSH1 0x40 MLOAD PUSH3 0x461BCD PUSH1 0xE5 SHL DUP2 MSTORE PUSH1 0x4 ADD PUSH2 0x350 SWAP1 PUSH2 0x1121 JUMP JUMPDEST PUSH1 0x0 DUP4 DUP2 MSTORE PUSH1 0x20 DUP2 SWAP1 MSTORE PUSH1 0x40 SWAP1 DUP2 SWAP1 KECCAK256 DUP2 MLOAD PUSH1 0xA0 DUP2 ADD SWAP1 SWAP3 MSTORE DUP1 SLOAD DUP3 SWAP1 DUP3 SWAP1 PUSH2 0x3B2 SWAP1 PUSH2 0x1024 JUMP JUMPDEST DUP1 PUSH1 0x1F ADD PUSH1 0x20 DUP1 SWAP2 DIV MUL PUSH1 0x20 ADD PUSH1 0x40 MLOAD SWAP1 DUP2 ADD PUSH1 0x40 MSTORE DUP1 SWAP3 SWAP2 SWAP1 DUP2 DUP2 MSTORE PUSH1 0x20 ADD DUP3 DUP1 SLOAD PUSH2 0x3DE SWAP1 PUSH2 0x1024 JUMP JUMPDEST DUP1 ISZERO PUSH2 0x42B JUMPI DUP1 PUSH1 0x1F LT PUSH2 0x400 JUMPI PUSH2 0x100 DUP1 DUP4 SLOAD DIV MUL DUP4 MSTORE SWAP2 PUSH1 0x20 ADD SWAP2 PUSH2 0x42B JUMP JUMPDEST DUP3 ADD SWAP2 SWAP1 PUSH1 0x0 MSTORE PUSH1 0x20 PUSH1 0x0 KECCAK256 SWAP1 JUMPDEST DUP2 SLOAD DUP2 MSTORE SWAP1 PUSH1 0x1 ADD SWAP1 PUSH1 0x20 ADD DUP1 DUP4 GT PUSH2 0x40E JUMPI DUP3 SWAP1 SUB PUSH1 0x1F AND DUP3 ADD SWAP2 JUMPDEST POP POP POP SWAP2 DUP4 MSTORE POP POP PUSH1 0x1 DUP3 ADD SLOAD PUSH1 0x20 DUP3 ADD MSTORE PUSH1 0x2 DUP3 ADD SLOAD PUSH1 0x40 DUP3 ADD MSTORE PUSH1 0x3 DUP3 ADD SLOAD PUSH1 0xFF AND ISZERO ISZERO PUSH1 0x60 DUP3 ADD MSTORE PUSH1 0x4 SWAP1 SWAP2 ADD SLOAD PUSH1 0x80 SWAP1 SWAP2 ADD MSTORE SWAP2 POP JUMPDEST POP SWAP2 SWAP1 POP JUMP JUMPDEST PUSH1 0x0 PUSH1 0x1 DUP5 PUSH1 0x40 MLOAD PUSH2 0x47D SWAP2 SWAP1 PUSH2 0x114A JUMP JUMPDEST SWAP1 DUP2 MSTORE PUSH1 0x40 DUP1 MLOAD PUSH1 0x20 SWAP3 DUP2 SWAP1 SUB DUP4 ADD SWAP1 KECCAK256 PUSH1 0x0 DUP6 DUP2 MSTORE SWAP3 MSTORE SWAP1 KECCAK256 SLOAD PUSH1 0xFF AND ISZERO PUSH2 0x4E1 JUMPI PUSH1 0x40 MLOAD PUSH3 0x461BCD PUSH1 0xE5 SHL DUP2 MSTORE PUSH1 0x20 PUSH1 0x4 DUP3 ADD MSTORE PUSH1 0x16 PUSH1 0x24 DUP3 ADD MSTORE PUSH22 0x139D5B1B1A599A595C88185B1C9958591E481D5CD959 PUSH1 0x52 SHL PUSH1 0x44 DUP3 ADD MSTORE PUSH1 0x64 ADD PUSH2 0x350 JUMP JUMPDEST PUSH1 0x0 DUP6 DUP2 MSTORE PUSH1 0x20 DUP2 SWAP1 MSTORE PUSH1 0x40 SWAP1 KECCAK256 PUSH1 0x3 ADD SLOAD PUSH1 0xFF AND ISZERO PUSH2 0x543 JUMPI PUSH1 0x40 MLOAD PUSH3 0x461BCD PUSH1 0xE5 SHL DUP2 MSTORE PUSH1 0x20 PUSH1 0x4 DUP3 ADD MSTORE PUSH1 0x1A PUSH1 0x24 DUP3 ADD MSTORE PUSH32 0x53657373696F6E206B657920616C726561647920657869737473000000000000 PUSH1 0x44 DUP3 ADD MSTORE PUSH1 0x64 ADD PUSH2 0x350 JUMP JUMPDEST TIMESTAMP DUP4 GT PUSH2 0x592 JUMPI PUSH1 0x40 MLOAD PUSH3 0x461BCD PUSH1 0xE5 SHL DUP2 MSTORE PUSH1 0x20 PUSH1 0x4 DUP3 ADD MSTORE PUSH1 0x17 PUSH1 0x24 DUP3 ADD MSTORE PUSH32 0x496E76616C69642076616C696469747920706572696F64000000000000000000 PUSH1 0x44 DUP3 ADD MSTORE PUSH1 0x64 ADD PUSH2 0x350 JUMP JUMPDEST PUSH1 0x40 DUP1 MLOAD PUSH1 0xA0 DUP2 ADD DUP3 MSTORE DUP6 DUP2 MSTORE PUSH1 0x20 DUP1 DUP3 ADD DUP7 SWAP1 MSTORE DUP2 DUP4 ADD DUP6 SWAP1 MSTORE PUSH1 0x1 PUSH1 0x60 DUP4 ADD MSTORE TIMESTAMP PUSH1 0x80 DUP4 ADD MSTORE PUSH1 0x0 DUP9 DUP2 MSTORE SWAP1 DUP2 SWAP1 MSTORE SWAP2 SWAP1 SWAP2 KECCAK256 DUP2 MLOAD DUP2 SWAP1 PUSH2 0x5D5 SWAP1 DUP3 PUSH2 0x11B5 JUMP JUMPDEST POP PUSH1 0x20 DUP3 ADD MLOAD DUP2 PUSH1 0x1 ADD SSTORE PUSH1 0x40 DUP3 ADD MLOAD DUP2 PUSH1 0x2 ADD SSTORE PUSH1 0x60 DUP3 ADD MLOAD DUP2 PUSH1 0x3 ADD PUSH1 0x0 PUSH2 0x100 EXP DUP2 SLOAD DUP2 PUSH1 0xFF MUL NOT AND SWAP1 DUP4 ISZERO ISZERO MUL OR SWAP1 SSTORE POP PUSH1 0x80 DUP3 ADD MLOAD DUP2 PUSH1 0x4 ADD SSTORE SWAP1 POP POP PUSH1 0x1 DUP1 DUP6 PUSH1 0x40 MLOAD PUSH2 0x628 SWAP2 SWAP1 PUSH2 0x114A JUMP JUMPDEST SWAP1 DUP2 MSTORE PUSH1 0x40 DUP1 MLOAD PUSH1 0x20 SWAP3 DUP2 SWAP1 SUB DUP4 ADD DUP2 KECCAK256 PUSH1 0x0 DUP8 DUP2 MSTORE SWAP4 MSTORE SWAP2 KECCAK256 DUP1 SLOAD PUSH1 0xFF NOT AND SWAP3 ISZERO ISZERO SWAP3 SWAP1 SWAP3 OR SWAP1 SWAP2 SSTORE PUSH2 0x65D SWAP1 DUP6 SWAP1 PUSH2 0x114A JUMP JUMPDEST PUSH1 0x40 MLOAD DUP1 SWAP2 SUB SWAP1 KECCAK256 DUP6 PUSH32 0x66EABF34C12CA9DAE904DADF111A215B848D2D323E2220AAF1B24F9071BB4CCF DUP6 PUSH1 0x40 MLOAD PUSH2 0x697 SWAP2 DUP2 MSTORE PUSH1 0x20 ADD SWAP1 JUMP JUMPDEST PUSH1 0x40 MLOAD DUP1 SWAP2 SUB SWAP1 LOG3 POP PUSH1 0x1 SWAP5 SWAP4 POP POP POP POP JUMP JUMPDEST PUSH1 0x0 DUP3 DUP2 MSTORE PUSH1 0x20 DUP2 SWAP1 MSTORE PUSH1 0x40 SWAP1 KECCAK256 PUSH1 0x3 ADD SLOAD DUP3 SWAP1 PUSH1 0xFF AND PUSH2 0x6DD JUMPI PUSH1 0x40 MLOAD PUSH3 0x461BCD PUSH1 0xE5 SHL DUP2 MSTORE PUSH1 0x4 ADD PUSH2 0x350 SWAP1 PUSH2 0x10F5 JUMP JUMPDEST PUSH1 0x0 DUP2 DUP2 MSTORE PUSH1 0x20 DUP2 SWAP1 MSTORE PUSH1 0x40 SWAP1 KECCAK256 PUSH1 0x1 ADD SLOAD TIMESTAMP GT ISZERO PUSH2 0x70E JUMPI PUSH1 0x40 MLOAD PUSH3 0x461BCD PUSH1 0xE5 SHL DUP2 MSTORE PUSH1 0x4 ADD PUSH2 0x350 SWAP1 PUSH2 0x1121 JUMP JUMPDEST PUSH1 0x0 DUP4 PUSH1 0x40 MLOAD PUSH1 0x20 ADD PUSH2 0x73D SWAP2 DUP2 MSTORE PUSH17 0x636F6E666964656E7469616C5F64617461 PUSH1 0x78 SHL PUSH1 0x20 DUP3 ADD MSTORE PUSH1 0x31 ADD SWAP1 JUMP JUMPDEST PUSH1 0x40 DUP1 MLOAD PUSH1 0x1F NOT DUP2 DUP5 SUB ADD DUP2 MSTORE SWAP2 DUP2 MSTORE DUP2 MLOAD PUSH1 0x20 SWAP3 DUP4 ADD KECCAK256 PUSH1 0x0 DUP2 DUP2 MSTORE PUSH1 0x3 SWAP1 SWAP4 MSTORE SWAP2 KECCAK256 SWAP1 SWAP2 POP PUSH2 0x76E DUP5 DUP3 PUSH2 0x11B5 JUMP JUMPDEST POP POP POP POP POP JUMP JUMPDEST PUSH1 0x0 DUP2 DUP2 MSTORE PUSH1 0x20 DUP2 SWAP1 MSTORE PUSH1 0x40 DUP2 KECCAK256 PUSH1 0x3 ADD SLOAD DUP3 SWAP1 PUSH1 0xFF AND PUSH2 0x7A8 JUMPI PUSH1 0x40 MLOAD PUSH3 0x461BCD PUSH1 0xE5 SHL DUP2 MSTORE PUSH1 0x4 ADD PUSH2 0x350 SWAP1 PUSH2 0x10F5 JUMP JUMPDEST PUSH1 0x0 DUP2 DUP2 MSTORE PUSH1 0x20 DUP2 SWAP1 MSTORE PUSH1 0x40 SWAP1 KECCAK256 PUSH1 0x1 ADD SLOAD TIMESTAMP GT ISZERO PUSH2 0x7D9 JUMPI PUSH1 0x40 MLOAD PUSH3 0x461BCD PUSH1 0xE5 SHL DUP2 MSTORE PUSH1 0x4 ADD PUSH2 0x350 SWAP1 PUSH2 0x1121 JUMP JUMPDEST PUSH1 0x0 DUP4 DUP2 MSTORE PUSH1 0x20 DUP2 SWAP1 MSTORE PUSH1 0x40 SWAP1 DUP2 SWAP1 KECCAK256 SWAP1 MLOAD CALLER SWAP1 PUSH1 0x2 SWAP1 PUSH2 0x7FB SWAP1 DUP5 SWAP1 PUSH2 0x1058 JUMP JUMPDEST SWAP1 DUP2 MSTORE PUSH1 0x40 MLOAD SWAP1 DUP2 SWAP1 SUB PUSH1 0x20 ADD SWAP1 KECCAK256 SLOAD PUSH1 0x1 PUSH1 0x1 PUSH1 0xA0 SHL SUB AND EQ PUSH2 0x861 JUMPI PUSH1 0x40 MLOAD PUSH3 0x461BCD PUSH1 0xE5 SHL DUP2 MSTORE PUSH1 0x20 PUSH1 0x4 DUP3 ADD MSTORE PUSH1 0x18 PUSH1 0x24 DUP3 ADD MSTORE PUSH32 0x4E6F7420617574686F72697A656420746F207265766F6B650000000000000000 PUSH1 0x44 DUP3 ADD MSTORE PUSH1 0x64 ADD PUSH2 0x350 JUMP JUMPDEST PUSH1 0x3 DUP2 ADD DUP1 SLOAD PUSH1 0xFF NOT AND SWAP1 SSTORE PUSH1 0x40 MLOAD PUSH2 0x87B SWAP1 DUP3 SWAP1 PUSH2 0x1058 JUMP JUMPDEST PUSH1 0x40 MLOAD SWAP1 DUP2 SWAP1 SUB DUP2 KECCAK256 SWAP1 DUP6 SWAP1 PUSH32 0x346E0EFE5D8DCE1A1F5B39BF4203465B2ACF19BB3D563ACB91D5B4F6175DC814 SWAP1 PUSH1 0x0 SWAP1 LOG3 POP PUSH1 0x1 SWAP4 SWAP3 POP POP POP JUMP JUMPDEST PUSH1 0x0 PUSH1 0x60 PUSH1 0x0 DUP1 PUSH1 0x0 DUP1 DUP7 DUP2 MSTORE PUSH1 0x20 ADD SWAP1 DUP2 MSTORE PUSH1 0x20 ADD PUSH1 0x0 KECCAK256 PUSH1 0x40 MLOAD DUP1 PUSH1 0xA0 ADD PUSH1 0x40 MSTORE SWAP1 DUP2 PUSH1 0x0 DUP3 ADD DUP1 SLOAD PUSH2 0x8EB SWAP1 PUSH2 0x1024 JUMP JUMPDEST DUP1 PUSH1 0x1F ADD PUSH1 0x20 DUP1 SWAP2 DIV MUL PUSH1 0x20 ADD PUSH1 0x40 MLOAD SWAP1 DUP2 ADD PUSH1 0x40 MSTORE DUP1 SWAP3 SWAP2 SWAP1 DUP2 DUP2 MSTORE PUSH1 0x20 ADD DUP3 DUP1 SLOAD PUSH2 0x917 SWAP1 PUSH2 0x1024 JUMP JUMPDEST DUP1 ISZERO PUSH2 0x964 JUMPI DUP1 PUSH1 0x1F LT PUSH2 0x939 JUMPI PUSH2 0x100 DUP1 DUP4 SLOAD DIV MUL DUP4 MSTORE SWAP2 PUSH1 0x20 ADD SWAP2 PUSH2 0x964 JUMP JUMPDEST DUP3 ADD SWAP2 SWAP1 PUSH1 0x0 MSTORE PUSH1 0x20 PUSH1 0x0 KECCAK256 SWAP1 JUMPDEST DUP2 SLOAD DUP2 MSTORE SWAP1 PUSH1 0x1 ADD SWAP1 PUSH1 0x20 ADD DUP1 DUP4 GT PUSH2 0x947 JUMPI DUP3 SWAP1 SUB PUSH1 0x1F AND DUP3 ADD SWAP2 JUMPDEST POP POP POP SWAP2 DUP4 MSTORE POP POP PUSH1 0x1 DUP3 ADD SLOAD PUSH1 0x20 DUP3 ADD MSTORE PUSH1 0x2 DUP3 ADD SLOAD PUSH1 0x40 DUP3 ADD MSTORE PUSH1 0x3 DUP3 ADD SLOAD PUSH1 0xFF AND ISZERO ISZERO PUSH1 0x60 DUP1 DUP4 ADD SWAP2 SWAP1 SWAP2 MSTORE PUSH1 0x4 SWAP1 SWAP3 ADD SLOAD PUSH1 0x80 SWAP1 SWAP2 ADD MSTORE DUP2 ADD MLOAD SWAP1 SWAP2 POP DUP1 ISZERO PUSH2 0x9B5 JUMPI POP DUP1 PUSH1 0x20 ADD MLOAD TIMESTAMP GT ISZERO JUMPDEST ISZERO PUSH2 0x9D0 JUMPI DUP1 MLOAD PUSH1 0x20 SWAP1 SWAP2 ADD MLOAD PUSH1 0x1 SWAP5 POP SWAP1 SWAP3 POP SWAP1 POP PUSH2 0x9E8 JUMP JUMPDEST POP POP PUSH1 0x40 DUP1 MLOAD PUSH1 0x20 DUP2 ADD SWAP1 SWAP2 MSTORE PUSH1 0x0 DUP1 DUP3 MSTORE SWAP3 POP SWAP1 POP DUP2 JUMPDEST SWAP2 SWAP4 SWAP1 SWAP3 POP JUMP JUMPDEST PUSH1 0x0 PUSH1 0x1 PUSH1 0x1 PUSH1 0xA0 SHL SUB AND PUSH1 0x2 DUP3 PUSH1 0x40 MLOAD PUSH2 0xA0A SWAP2 SWAP1 PUSH2 0x114A JUMP JUMPDEST SWAP1 DUP2 MSTORE PUSH1 0x40 MLOAD SWAP1 DUP2 SWAP1 SUB PUSH1 0x20 ADD SWAP1 KECCAK256 SLOAD PUSH1 0x1 PUSH1 0x1 PUSH1 0xA0 SHL SUB AND EQ PUSH2 0xA69 JUMPI PUSH1 0x40 MLOAD PUSH3 0x461BCD PUSH1 0xE5 SHL DUP2 MSTORE PUSH1 0x20 PUSH1 0x4 DUP3 ADD MSTORE PUSH1 0x16 PUSH1 0x24 DUP3 ADD MSTORE PUSH22 0x105C1C08185B1C9958591E481C9959DA5CDD195C9959 PUSH1 0x52 SHL PUSH1 0x44 DUP3 ADD MSTORE PUSH1 0x64 ADD PUSH2 0x350 JUMP JUMPDEST CALLER PUSH1 0x2 DUP3 PUSH1 0x40 MLOAD PUSH2 0xA7A SWAP2 SWAP1 PUSH2 0x114A JUMP JUMPDEST SWAP1 DUP2 MSTORE PUSH1 0x40 MLOAD SWAP1 DUP2 SWAP1 SUB PUSH1 0x20 ADD DUP2 KECCAK256 DUP1 SLOAD PUSH1 0x1 PUSH1 0x1 PUSH1 0xA0 SHL SUB SWAP4 SWAP1 SWAP4 AND PUSH1 0x1 PUSH1 0x1 PUSH1 0xA0 SHL SUB NOT SWAP1 SWAP4 AND SWAP3 SWAP1 SWAP3 OR SWAP1 SWAP2 SSTORE CALLER SWAP1 PUSH2 0xAB7 SWAP1 DUP4 SWAP1 PUSH2 0x114A JUMP JUMPDEST PUSH1 0x40 MLOAD SWAP1 DUP2 SWAP1 SUB DUP2 KECCAK256 SWAP1 PUSH32 0x2478F2AE0A803F7B69BAC6AB2225B6FA2C7AC8DEC03B79698CD0E59C0D9E1800 SWAP1 PUSH1 0x0 SWAP1 LOG3 POP JUMP JUMPDEST PUSH1 0x0 PUSH1 0x1 DUP4 PUSH1 0x40 MLOAD PUSH2 0xAFC SWAP2 SWAP1 PUSH2 0x114A JUMP JUMPDEST SWAP1 DUP2 MSTORE PUSH1 0x40 DUP1 MLOAD PUSH1 0x20 SWAP3 DUP2 SWAP1 SUB DUP4 ADD SWAP1 KECCAK256 PUSH1 0x0 SWAP5 DUP6 MSTORE SWAP1 SWAP2 MSTORE SWAP1 SWAP2 KECCAK256 SLOAD PUSH1 0xFF AND SWAP3 SWAP2 POP POP JUMP JUMPDEST PUSH1 0x0 DUP2 DUP2 MSTORE PUSH1 0x20 DUP2 SWAP1 MSTORE PUSH1 0x40 SWAP1 KECCAK256 PUSH1 0x3 ADD SLOAD PUSH1 0x60 SWAP1 DUP3 SWAP1 PUSH1 0xFF AND PUSH2 0xB58 JUMPI PUSH1 0x40 MLOAD PUSH3 0x461BCD PUSH1 0xE5 SHL DUP2 MSTORE PUSH1 0x4 ADD PUSH2 0x350 SWAP1 PUSH2 0x10F5 JUMP JUMPDEST PUSH1 0x0 DUP2 DUP2 MSTORE PUSH1 0x20 DUP2 SWAP1 MSTORE PUSH1 0x40 SWAP1 KECCAK256 PUSH1 0x1 ADD SLOAD TIMESTAMP GT ISZERO PUSH2 0xB89 JUMPI PUSH1 0x40 MLOAD PUSH3 0x461BCD PUSH1 0xE5 SHL DUP2 MSTORE PUSH1 0x4 ADD PUSH2 0x350 SWAP1 PUSH2 0x1121 JUMP JUMPDEST PUSH1 0x0 DUP4 PUSH1 0x40 MLOAD PUSH1 0x20 ADD PUSH2 0xBB8 SWAP2 DUP2 MSTORE PUSH17 0x636F6E666964656E7469616C5F64617461 PUSH1 0x78 SHL PUSH1 0x20 DUP3 ADD MSTORE PUSH1 0x31 ADD SWAP1 JUMP JUMPDEST PUSH1 0x40 MLOAD PUSH1 0x20 DUP2 DUP4 SUB SUB DUP2 MSTORE SWAP1 PUSH1 0x40 MSTORE DUP1 MLOAD SWAP1 PUSH1 0x20 ADD KECCAK256 SWAP1 POP PUSH1 0x3 PUSH1 0x0 DUP3 DUP2 MSTORE PUSH1 0x20 ADD SWAP1 DUP2 MSTORE PUSH1 0x20 ADD PUSH1 0x0 KECCAK256 DUP1 SLOAD PUSH2 0xBEE SWAP1 PUSH2 0x1024 JUMP JUMPDEST DUP1 PUSH1 0x1F ADD PUSH1 0x20 DUP1 SWAP2 DIV MUL PUSH1 0x20 ADD PUSH1 0x40 MLOAD SWAP1 DUP2 ADD PUSH1 0x40 MSTORE DUP1 SWAP3 SWAP2 SWAP1 DUP2 DUP2 MSTORE PUSH1 0x20 ADD DUP3 DUP1 SLOAD PUSH2 0xC1A SWAP1 PUSH2 0x1024 JUMP JUMPDEST DUP1 ISZERO PUSH2 0xC67 JUMPI DUP1 PUSH1 0x1F LT PUSH2 0xC3C JUMPI PUSH2 0x100 DUP1 DUP4 SLOAD DIV MUL DUP4 MSTORE SWAP2 PUSH1 0x20 ADD SWAP2 PUSH2 0xC67 JUMP JUMPDEST DUP3 ADD SWAP2 SWAP1 PUSH1 0x0 MSTORE PUSH1 0x20 PUSH1 0x0 KECCAK256 SWAP1 JUMPDEST DUP2 SLOAD DUP2 MSTORE SWAP1 PUSH1 0x1 ADD SWAP1 PUSH1 0x20 ADD DUP1 DUP4 GT PUSH2 0xC4A JUMPI DUP3 SWAP1 SUB PUSH1 0x1F AND DUP3 ADD SWAP2 JUMPDEST POP POP POP POP POP SWAP3 POP POP POP SWAP2 SWAP1 POP JUMP JUMPDEST PUSH4 0x4E487B71 PUSH1 0xE0 SHL PUSH1 0x0 MSTORE PUSH1 0x41 PUSH1 0x4 MSTORE PUSH1 0x24 PUSH1 0x0 REVERT JUMPDEST PUSH1 0x40 MLOAD PUSH1 0x1F DUP3 ADD PUSH1 0x1F NOT AND DUP2 ADD PUSH8 0xFFFFFFFFFFFFFFFF DUP2 GT DUP3 DUP3 LT OR ISZERO PUSH2 0xCB4 JUMPI PUSH2 0xCB4 PUSH2 0xC75 JUMP JUMPDEST PUSH1 0x40 MSTORE SWAP2 SWAP1 POP JUMP JUMPDEST PUSH1 0x0 PUSH1 0x20 DUP1 DUP4 DUP6 SUB SLT ISZERO PUSH2 0xCCF JUMPI PUSH1 0x0 DUP1 REVERT JUMPDEST DUP3 CALLDATALOAD PUSH8 0xFFFFFFFFFFFFFFFF DUP1 DUP3 GT ISZERO PUSH2 0xCE7 JUMPI PUSH1 0x0 DUP1 REVERT JUMPDEST DUP2 DUP6 ADD SWAP2 POP DUP6 PUSH1 0x1F DUP4 ADD SLT PUSH2 0xCFB JUMPI PUSH1 0x0 DUP1 REVERT JUMPDEST DUP2 CALLDATALOAD DUP2 DUP2 GT ISZERO PUSH2 0xD0D JUMPI PUSH2 0xD0D PUSH2 0xC75 JUMP JUMPDEST DUP1 PUSH1 0x5 SHL SWAP2 POP PUSH2 0xD1E DUP5 DUP4 ADD PUSH2 0xC8B JUMP JUMPDEST DUP2 DUP2 MSTORE SWAP2 DUP4 ADD DUP5 ADD SWAP2 DUP5 DUP2 ADD SWAP1 DUP9 DUP5 GT ISZERO PUSH2 0xD38 JUMPI PUSH1 0x0 DUP1 REVERT JUMPDEST SWAP4 DUP6 ADD SWAP4 JUMPDEST DUP4 DUP6 LT ISZERO PUSH2 0xD56 JUMPI DUP5 CALLDATALOAD DUP3 MSTORE SWAP4 DUP6 ADD SWAP4 SWAP1 DUP6 ADD SWAP1 PUSH2 0xD3D JUMP JUMPDEST SWAP9 SWAP8 POP POP POP POP POP POP POP POP JUMP JUMPDEST PUSH1 0x0 PUSH1 0x20 DUP3 DUP5 SUB SLT ISZERO PUSH2 0xD74 JUMPI PUSH1 0x0 DUP1 REVERT JUMPDEST POP CALLDATALOAD SWAP2 SWAP1 POP JUMP JUMPDEST PUSH1 0x0 JUMPDEST DUP4 DUP2 LT ISZERO PUSH2 0xD96 JUMPI DUP2 DUP2 ADD MLOAD DUP4 DUP3 ADD MSTORE PUSH1 0x20 ADD PUSH2 0xD7E JUMP JUMPDEST POP POP PUSH1 0x0 SWAP2 ADD MSTORE JUMP JUMPDEST PUSH1 0x0 DUP2 MLOAD DUP1 DUP5 MSTORE PUSH2 0xDB7 DUP2 PUSH1 0x20 DUP7 ADD PUSH1 0x20 DUP7 ADD PUSH2 0xD7B JUMP JUMPDEST PUSH1 0x1F ADD PUSH1 0x1F NOT AND SWAP3 SWAP1 SWAP3 ADD PUSH1 0x20 ADD SWAP3 SWAP2 POP POP JUMP JUMPDEST PUSH1 0x20 DUP2 MSTORE PUSH1 0x0 DUP3 MLOAD PUSH1 0xA0 PUSH1 0x20 DUP5 ADD MSTORE PUSH2 0xDE7 PUSH1 0xC0 DUP5 ADD DUP3 PUSH2 0xD9F JUMP JUMPDEST SWAP1 POP PUSH1 0x20 DUP5 ADD MLOAD PUSH1 0x40 DUP5 ADD MSTORE PUSH1 0x40 DUP5 ADD MLOAD PUSH1 0x60 DUP5 ADD MSTORE PUSH1 0x60 DUP5 ADD MLOAD ISZERO ISZERO PUSH1 0x80 DUP5 ADD MSTORE PUSH1 0x80 DUP5 ADD MLOAD PUSH1 0xA0 DUP5 ADD MSTORE DUP1 SWAP2 POP POP SWAP3 SWAP2 POP POP JUMP JUMPDEST PUSH1 0x20 DUP2 MSTORE PUSH1 0x0 PUSH2 0xE30 PUSH1 0x20 DUP4 ADD DUP5 PUSH2 0xD9F JUMP JUMPDEST SWAP4 SWAP3 POP POP POP JUMP JUMPDEST PUSH1 0x0 PUSH8 0xFFFFFFFFFFFFFFFF DUP4 GT ISZERO PUSH2 0xE51 JUMPI PUSH2 0xE51 PUSH2 0xC75 JUMP JUMPDEST PUSH2 0xE64 PUSH1 0x1F DUP5 ADD PUSH1 0x1F NOT AND PUSH1 0x20 ADD PUSH2 0xC8B JUMP JUMPDEST SWAP1 POP DUP3 DUP2 MSTORE DUP4 DUP4 DUP4 ADD GT ISZERO PUSH2 0xE78 JUMPI PUSH1 0x0 DUP1 REVERT JUMPDEST DUP3 DUP3 PUSH1 0x20 DUP4 ADD CALLDATACOPY PUSH1 0x0 PUSH1 0x20 DUP5 DUP4 ADD ADD MSTORE SWAP4 SWAP3 POP POP POP JUMP JUMPDEST PUSH1 0x0 DUP3 PUSH1 0x1F DUP4 ADD SLT PUSH2 0xEA0 JUMPI PUSH1 0x0 DUP1 REVERT JUMPDEST PUSH2 0xE30 DUP4 DUP4 CALLDATALOAD PUSH1 0x20 DUP6 ADD PUSH2 0xE37 JUMP JUMPDEST PUSH1 0x0 DUP1 PUSH1 0x0 DUP1 PUSH1 0x80 DUP6 DUP8 SUB SLT ISZERO PUSH2 0xEC5 JUMPI PUSH1 0x0 DUP1 REVERT JUMPDEST DUP5 CALLDATALOAD SWAP4 POP PUSH1 0x20 DUP6 ADD CALLDATALOAD PUSH8 0xFFFFFFFFFFFFFFFF DUP2 GT ISZERO PUSH2 0xEE3 JUMPI PUSH1 0x0 DUP1 REVERT JUMPDEST PUSH2 0xEEF DUP8 DUP3 DUP9 ADD PUSH2 0xE8F JUMP JUMPDEST SWAP5 SWAP8 SWAP5 SWAP7 POP POP POP POP PUSH1 0x40 DUP4 ADD CALLDATALOAD SWAP3 PUSH1 0x60 ADD CALLDATALOAD SWAP2 SWAP1 POP JUMP JUMPDEST PUSH1 0x0 DUP1 PUSH1 0x40 DUP4 DUP6 SUB SLT ISZERO PUSH2 0xF19 JUMPI PUSH1 0x0 DUP1 REVERT JUMPDEST DUP3 CALLDATALOAD SWAP2 POP PUSH1 0x20 DUP4 ADD CALLDATALOAD PUSH8 0xFFFFFFFFFFFFFFFF DUP2 GT ISZERO PUSH2 0xF37 JUMPI PUSH1 0x0 DUP1 REVERT JUMPDEST DUP4 ADD PUSH1 0x1F DUP2 ADD DUP6 SGT PUSH2 0xF48 JUMPI PUSH1 0x0 DUP1 REVERT JUMPDEST PUSH2 0xF57 DUP6 DUP3 CALLDATALOAD PUSH1 0x20 DUP5 ADD PUSH2 0xE37 JUMP JUMPDEST SWAP2 POP POP SWAP3 POP SWAP3 SWAP1 POP JUMP JUMPDEST DUP4 ISZERO ISZERO DUP2 MSTORE PUSH1 0x60 PUSH1 0x20 DUP3 ADD MSTORE PUSH1 0x0 PUSH2 0xF7C PUSH1 0x60 DUP4 ADD DUP6 PUSH2 0xD9F JUMP JUMPDEST SWAP1 POP DUP3 PUSH1 0x40 DUP4 ADD MSTORE SWAP5 SWAP4 POP POP POP POP JUMP JUMPDEST PUSH1 0x0 PUSH1 0x20 DUP3 DUP5 SUB SLT ISZERO PUSH2 0xF9E JUMPI PUSH1 0x0 DUP1 REVERT JUMPDEST DUP2 CALLDATALOAD PUSH8 0xFFFFFFFFFFFFFFFF DUP2 GT ISZERO PUSH2 0xFB5 JUMPI PUSH1 0x0 DUP1 REVERT JUMPDEST PUSH2 0xFC1 DUP5 DUP3 DUP6 ADD PUSH2 0xE8F JUMP JUMPDEST SWAP5 SWAP4 POP POP POP POP JUMP JUMPDEST PUSH1 0x0 DUP1 PUSH1 0x40 DUP4 DUP6 SUB SLT ISZERO PUSH2 0xFDC JUMPI PUSH1 0x0 DUP1 REVERT JUMPDEST DUP3 CALLDATALOAD PUSH8 0xFFFFFFFFFFFFFFFF DUP2 GT ISZERO PUSH2 0xFF3 JUMPI PUSH1 0x0 DUP1 REVERT JUMPDEST PUSH2 0xFFF DUP6 DUP3 DUP7 ADD PUSH2 0xE8F JUMP JUMPDEST SWAP6 PUSH1 0x20 SWAP5 SWAP1 SWAP5 ADD CALLDATALOAD SWAP5 POP POP POP POP JUMP JUMPDEST PUSH4 0x4E487B71 PUSH1 0xE0 SHL PUSH1 0x0 MSTORE PUSH1 0x32 PUSH1 0x4 MSTORE PUSH1 0x24 PUSH1 0x0 REVERT JUMPDEST PUSH1 0x1 DUP2 DUP2 SHR SWAP1 DUP3 AND DUP1 PUSH2 0x1038 JUMPI PUSH1 0x7F DUP3 AND SWAP2 POP JUMPDEST PUSH1 0x20 DUP3 LT DUP2 SUB PUSH2 0x465 JUMPI PUSH4 0x4E487B71 PUSH1 0xE0 SHL PUSH1 0x0 MSTORE PUSH1 0x22 PUSH1 0x4 MSTORE PUSH1 0x24 PUSH1 0x0 REVERT JUMPDEST PUSH1 0x0 DUP1 DUP4 SLOAD PUSH2 0x1066 DUP2 PUSH2 0x1024 JUMP JUMPDEST PUSH1 0x1 DUP3 DUP2 AND DUP1 ISZERO PUSH2 0x107E JUMPI PUSH1 0x1 DUP2 EQ PUSH2 0x1093 JUMPI PUSH2 0x10C2 JUMP JUMPDEST PUSH1 0xFF NOT DUP5 AND DUP8 MSTORE DUP3 ISZERO ISZERO DUP4 MUL DUP8 ADD SWAP5 POP PUSH2 0x10C2 JUMP JUMPDEST DUP8 PUSH1 0x0 MSTORE PUSH1 0x20 DUP1 PUSH1 0x0 KECCAK256 PUSH1 0x0 JUMPDEST DUP6 DUP2 LT ISZERO PUSH2 0x10B9 JUMPI DUP2 SLOAD DUP11 DUP3 ADD MSTORE SWAP1 DUP5 ADD SWAP1 DUP3 ADD PUSH2 0x10A0 JUMP JUMPDEST POP POP POP DUP3 DUP8 ADD SWAP5 POP JUMPDEST POP SWAP3 SWAP7 SWAP6 POP POP POP POP POP POP JUMP JUMPDEST PUSH1 0x0 PUSH1 0x1 DUP3 ADD PUSH2 0x10EE JUMPI PUSH4 0x4E487B71 PUSH1 0xE0 SHL PUSH1 0x0 MSTORE PUSH1 0x11 PUSH1 0x4 MSTORE PUSH1 0x24 PUSH1 0x0 REVERT JUMPDEST POP PUSH1 0x1 ADD SWAP1 JUMP JUMPDEST PUSH1 0x20 DUP1 DUP3 MSTORE PUSH1 0x12 SWAP1 DUP3 ADD MSTORE PUSH18 0x53657373696F6E206E6F7420616374697665 PUSH1 0x70 SHL PUSH1 0x40 DUP3 ADD MSTORE PUSH1 0x60 ADD SWAP1 JUMP JUMPDEST PUSH1 0x20 DUP1 DUP3 MSTORE PUSH1 0xF SWAP1 DUP3 ADD MSTORE PUSH15 0x14D95CDCDA5BDB88195E1C1A5C9959 PUSH1 0x8A SHL PUSH1 0x40 DUP3 ADD MSTORE PUSH1 0x60 ADD SWAP1 JUMP JUMPDEST PUSH1 0x0 DUP3 MLOAD PUSH2 0x115C DUP2 DUP5 PUSH1 0x20 DUP8 ADD PUSH2 0xD7B JUMP JUMPDEST SWAP2 SWAP1 SWAP2 ADD SWAP3 SWAP2 POP POP JUMP JUMPDEST PUSH1 0x1F DUP3 GT ISZERO PUSH2 0x11B0 JUMPI PUSH1 0x0 DUP2 DUP2 MSTORE PUSH1 0x20 DUP2 KECCAK256 PUSH1 0x1F DUP6 ADD PUSH1 0x5 SHR DUP2 ADD PUSH1 0x20 DUP7 LT ISZERO PUSH2 0x118D JUMPI POP DUP1 JUMPDEST PUSH1 0x1F DUP6 ADD PUSH1 0x5 SHR DUP3 ADD SWAP2 POP JUMPDEST DUP2 DUP2 LT ISZERO PUSH2 0x11AC JUMPI DUP3 DUP2 SSTORE PUSH1 0x1 ADD PUSH2 0x1199 JUMP JUMPDEST POP POP POP JUMPDEST POP POP POP JUMP JUMPDEST DUP2 MLOAD PUSH8 0xFFFFFFFFFFFFFFFF DUP2 GT ISZERO PUSH2 0x11CF JUMPI PUSH2 0x11CF PUSH2 0xC75 JUMP JUMPDEST PUSH2 0x11E3 DUP2 PUSH2 0x11DD DUP5 SLOAD PUSH2 0x1024 JUMP JUMPDEST DUP5 PUSH2 0x1166 JUMP JUMPDEST PUSH1 0x20 DUP1 PUSH1 0x1F DUP4 GT PUSH1 0x1 DUP2 EQ PUSH2 0x1218 JUMPI PUSH1 0x0 DUP5 ISZERO PUSH2 0x1200 JUMPI POP DUP6 DUP4 ADD MLOAD JUMPDEST PUSH1 0x0 NOT PUSH1 0x3 DUP7 SWAP1 SHL SHR NOT AND PUSH1 0x1 DUP6 SWAP1 SHL OR DUP6 SSTORE PUSH2 0x11AC JUMP JUMPDEST PUSH1 0x0 DUP6 DUP2 MSTORE PUSH1 0x20 DUP2 KECCAK256 PUSH1 0x1F NOT DUP7 AND SWAP2 JUMPDEST DUP3 DUP2 LT ISZERO PUSH2 0x1247 JUMPI DUP9 DUP7 ADD MLOAD DUP3 SSTORE SWAP5 DUP5 ADD SWAP5 PUSH1 0x1 SWAP1 SWAP2 ADD SWAP1 DUP5 ADD PUSH2 0x1228 JUMP JUMPDEST POP DUP6 DUP3 LT ISZERO PUSH2 0x1265 JUMPI DUP8 DUP6 ADD MLOAD PUSH1 0x0 NOT PUSH1 0x3 DUP9 SWAP1 SHL PUSH1 0xF8 AND SHR NOT AND DUP2 SSTORE JUMPDEST POP POP POP POP POP PUSH1 0x1 SWAP1 DUP2 SHL ADD SWAP1 SSTORE POP JUMP INVALID LOG2 PUSH5 0x6970667358 0x22 SLT KECCAK256 PUSH32 0x87FD5211D99A31B115CE951361DA17EF661E3603138DB0A29B9EB5C3F2EE0E64 PUSH20 0x6F6C634300081300330000000000000000000000 "},"methodIdentifiers":{"appOwners(string)":"c718c1e5","cleanupExpiredSessions(bytes32[])":"5290cf96","createSession(bytes32,string,uint256,bytes32)":"7a94061b","getSessionDetails(bytes32)":"53a93b92","isNullifierUsed(string,bytes32)":"f4241c02","registerApp(string)":"b3a55f64","retrieveConfidentialData(bytes32)":"fe5bce23","revokeSession(bytes32)":"a7fed385","storeConfidentialData(bytes32,bytes)":"80f839b1","verifySession(bytes32)":"ab0a6bea","version()":"54fd4d50"}}}}}