{
  "_format": "hh-sol-artifact-1",
  "contractName": "SessionKeyManager",
  "sourceName": "contracts/SessionKeyManager.sol",
  "abi": [
    {
      "inputs": [],
      "stateMutability": "nonpayable",
      "type": "constructor"
    },
    {
      "anonymous": false,
      "inputs": [
        {
          "indexed": true,
          "internalType": "string",
          "name": "appId",
          "type": "string"
        },
        {
          "indexed": true,
          "internalType": "address",
          "name": "owner",
          "type": "address"
        }
      ],
      "name": "AppRegistered",
      "type": "event"
    },
    {
      "anonymous": false,
      "inputs": [
        {
          "indexed": true,
          "internalType": "bytes32",
          "name": "sessionKey",
          "type": "bytes32"
        },
        {
          "indexed": true,
          "internalType": "string",
          "name": "appId",
          "type": "string"
        },
        {
          "indexed": false,
          "internalType": "uint256",
          "name": "validUntil",
          "type": "uint256"
        }
      ],
      "name": "SessionCreated",
      "type": "event"
    },
    {
      "anonymous": false,
      "inputs": [
        {
          "indexed": true,
          "internalType": "bytes32",
          "name": "sessionKey",
          "type": "bytes32"
        },
        {
          "indexed": true,
          "internalType": "string",
          "name": "appId",
          "type": "string"
        }
      ],
      "name": "SessionRevoked",
      "type": "event"
    },
    {
      "inputs": [
        {
          "internalType": "string",
          "name": "",
          "type": "string"
        }
      ],
      "name": "appOwners",
      "outputs": [
        {
          "internalType": "address",
          "name": "",
          "type": "address"
        }
      ],
      "stateMutability": "view",
      "type": "function"
    },
    {
      "inputs": [
        {
          "internalType": "bytes32[]",
          "name": "_sessionKeys",
          "type": "bytes32[]"
        }
      ],
      "name": "cleanupExpiredSessions",
      "outputs": [],
      "stateMutability": "nonpayable",
      "type": "function"
    },
    {
      "inputs": [
        {
          "internalType": "bytes32",
          "name": "_sessionKey",
          "type": "bytes32"
        },
        {
          "internalType": "string",
          "name": "_appId",
          "type": "string"
        },
        {
          "internalType": "uint256",
          "name": "_validUntil",
          "type": "uint256"
        },
        {
          "internalType": "bytes32",
          "name": "_nullifierHash",
          "type": "bytes32"
        }
      ],
      "name": "createSession",
      "outputs": [
        {
          "internalType": "bool",
          "name": "",
          "type": "bool"
        }
      ],
      "stateMutability": "nonpayable",
      "type": "function"
    },
    {
      "inputs": [
        {
          "internalType": "bytes32",
          "name": "_sessionKey",
          "type": "bytes32"
        }
      ],
      "name": "getSessionDetails",
      "outputs": [
        {
          "components": [
            {
              "internalType": "string",
              "name": "appId",
              "type": "string"
            },
            {
              "internalType": "uint256",
              "name": "validUntil",
              "type": "uint256"
            },
            {
              "internalType": "bytes32",
              "name": "nullifierHash",
              "type": "bytes32"
            },
            {
              "internalType": "bool",
              "name": "isActive",
              "type": "bool"
            },
            {
              "internalType": "uint256",
              "name": "createdAt",
              "type": "uint256"
            }
          ],
          "internalType": "struct SessionKeyManager.Session",
          "name": "session",
          "type": "tuple"
        }
      ],
      "stateMutability": "view",
      "type": "function"
    },
    {
      "inputs": [
        {
          "internalType": "string",
          "name": "_appId",
          "type": "string"
        },
        {
          "internalType": "bytes32",
          "name": "_nullifierHash",
          "type": "bytes32"
        }
      ],
      "name": "isNullifierUsed",
      "outputs": [
        {
          "internalType": "bool",
          "name": "used",
          "type": "bool"
        }
      ],
      "stateMutability": "view",
      "type": "function"
    },
    {
      "inputs": [
        {
          "internalType": "string",
          "name": "appId",
          "type": "string"
        }
      ],
      "name": "registerApp",
      "outputs": [],
      "stateMutability": "nonpayable",
      "type": "function"
    },
    {
      "inputs": [
        {
          "internalType": "bytes32",
          "name": "_sessionKey",
          "type": "bytes32"
        }
      ],
      "name": "retrieveConfidentialData",
      "outputs": [
        {
          "internalType": "bytes",
          "name": "encryptedData",
          "type": "bytes"
        }
      ],
      "stateMutability": "view",
      "type": "function"
    },
    {
      "inputs": [
        {
          "internalType": "bytes32",
          "name": "_sessionKey",
          "type": "bytes32"
        }
      ],
      "name": "revokeSession",
      "outputs": [
        {
          "internalType": "bool",
          "name": "",
          "type": "bool"
        }
      ],
      "stateMutability": "nonpayable",
      "type": "function"
    },
    {
      "inputs": [
        {
          "internalType": "bytes32",
          "name": "_sessionKey",
          "type": "bytes32"
        },
        {
          "internalType": "bytes",
          "name": "_encryptedData",
          "type": "bytes"
        }
      ],
      "name": "storeConfidentialData",
      "outputs": [],
      "stateMutability": "nonpayable",
      "type": "function"
    },
    {
      "inputs": [
        {
          "internalType": "bytes32",
          "name": "_sessionKey",
          "type": "bytes32"
        }
      ],
      "name": "verifySession",
      "outputs": [
        {
          "internalType": "bool",
          "name": "isValid",
          "type": "bool"
        },
        {
          "internalType": "string",
          "name": "appId",
          "type": "string"
        },
        {
          "internalType": "uint256",
          "name": "validUntil",
          "type": "uint256"
        }
      ],
      "stateMutability": "view",
      "type": "function"
    },
    {
      "inputs": [],
      "name": "version",
      "outputs": [
        {
          "internalType": "string",
          "name": "",
          "type": "string"
        }
      ],
      "stateMutability": "pure",
      "type": "function"
    }
  ],
  "bytecode": "0x608060405234801561001057600080fd5b506112ab806100206000396000f3fe608060405234801561001057600080fd5b50600436106100a95760003560e01c8063a7fed38511610071578063a7fed38514610157578063ab0a6bea1461016a578063b3a55f641461018c578063c718c1e51461019f578063f4241c02146101eb578063fe5bce23146101fe57600080fd5b80635290cf96146100ae57806353a93b92146100c357806354fd4d50146100ec5780637a94061b1461012157806380f839b114610144575b600080fd5b6100c16100bc366004610cbc565b610211565b005b6100d66100d1366004610d62565b6102f2565b6040516100e39190610dcb565b60405180910390f35b60408051808201909152601081526f0625c605c605ae6d0c2c8deeec2eae8d60831b60208201525b6040516100e39190610e1d565b61013461012f366004610eaf565b61046b565b60405190151581526020016100e3565b6100c1610152366004610f06565b6106aa565b610134610165366004610d62565b610775565b61017d610178366004610d62565b6108b7565b6040516100e393929190610f61565b6100c161019a366004610f8c565b6109ef565b6101d36101ad366004610f8c565b80516020818301810180516002825292820191909301209152546001600160a01b031681565b6040516001600160a01b0390911681526020016100e3565b6101346101f9366004610fc9565b610aea565b61011461020c366004610d62565b610b22565b60005b81518110156102ee5760008060008484815181106102345761023461100e565b6020026020010151815260200190815260200160002090508060030160009054906101000a900460ff16801561026d5750806001015442115b156102db5760038101805460ff1916905560405161028c908290611058565b60405180910390208383815181106102a6576102a661100e565b60200260200101517f346e0efe5d8dce1a1f5b39bf4203465b2acf19bb3d563acb91d5b4f6175dc81460405160405180910390a35b50806102e6816110ce565b915050610214565b5050565b6040805160a081018252606080825260006020830181905292820183905281018290526080810191909152600082815260208190526040902060030154829060ff166103595760405162461bcd60e51b8152600401610350906110f5565b60405180910390fd5b60008181526020819052604090206001015442111561038a5760405162461bcd60e51b815260040161035090611121565b60008381526020819052604090819020815160a081019092528054829082906103b290611024565b80601f01602080910402602001604051908101604052809291908181526020018280546103de90611024565b801561042b5780601f106104005761010080835404028352916020019161042b565b820191906000526020600020905b81548152906001019060200180831161040e57829003601f168201915b50505091835250506001820154602082015260028201546040820152600382015460ff161515606082015260049091015460809091015291505b50919050565b600060018460405161047d919061114a565b90815260408051602092819003830190206000858152925290205460ff16156104e15760405162461bcd60e51b8152602060048201526016602482015275139d5b1b1a599a595c88185b1c9958591e481d5cd95960521b6044820152606401610350565b60008581526020819052604090206003015460ff16156105435760405162461bcd60e51b815260206004820152601a60248201527f53657373696f6e206b657920616c7265616479206578697374730000000000006044820152606401610350565b4283116105925760405162461bcd60e51b815260206004820152601760248201527f496e76616c69642076616c696469747920706572696f640000000000000000006044820152606401610350565b6040805160a08101825285815260208082018690528183018590526001606083015242608083015260008881529081905291909120815181906105d590826111b5565b50602082015181600101556040820151816002015560608201518160030160006101000a81548160ff0219169083151502179055506080820151816004015590505060018085604051610628919061114a565b9081526040805160209281900383018120600087815293529120805460ff19169215159290921790915561065d90859061114a565b6040518091039020857f66eabf34c12ca9dae904dadf111a215b848d2d323e2220aaf1b24f9071bb4ccf8560405161069791815260200190565b60405180910390a3506001949350505050565b600082815260208190526040902060030154829060ff166106dd5760405162461bcd60e51b8152600401610350906110f5565b60008181526020819052604090206001015442111561070e5760405162461bcd60e51b815260040161035090611121565b60008360405160200161073d91815270636f6e666964656e7469616c5f6461746160781b602082015260310190565b60408051601f19818403018152918152815160209283012060008181526003909352912090915061076e84826111b5565b5050505050565b600081815260208190526040812060030154829060ff166107a85760405162461bcd60e51b8152600401610350906110f5565b6000818152602081905260409020600101544211156107d95760405162461bcd60e51b815260040161035090611121565b60008381526020819052604090819020905133906002906107fb908490611058565b908152604051908190036020019020546001600160a01b0316146108615760405162461bcd60e51b815260206004820152601860248201527f4e6f7420617574686f72697a656420746f207265766f6b6500000000000000006044820152606401610350565b60038101805460ff1916905560405161087b908290611058565b6040519081900381209085907f346e0efe5d8dce1a1f5b39bf4203465b2acf19bb3d563acb91d5b4f6175dc81490600090a35060019392505050565b600060606000806000808681526020019081526020016000206040518060a00160405290816000820180546108eb90611024565b80601f016020809104026020016040519081016040528092919081815260200182805461091790611024565b80156109645780601f1061093957610100808354040283529160200191610964565b820191906000526020600020905b81548152906001019060200180831161094757829003601f168201915b50505091835250506001820154602082015260028201546040820152600382015460ff16151560608083019190915260049092015460809091015281015190915080156109b5575080602001514211155b156109d05780516020909101516001945090925090506109e8565b50506040805160208101909152600080825292509050815b9193909250565b60006001600160a01b0316600282604051610a0a919061114a565b908152604051908190036020019020546001600160a01b031614610a695760405162461bcd60e51b8152602060048201526016602482015275105c1c08185b1c9958591e481c9959da5cdd195c995960521b6044820152606401610350565b33600282604051610a7a919061114a565b90815260405190819003602001812080546001600160a01b03939093166001600160a01b0319909316929092179091553390610ab790839061114a565b604051908190038120907f2478f2ae0a803f7b69bac6ab2225b6fa2c7ac8dec03b79698cd0e59c0d9e180090600090a350565b6000600183604051610afc919061114a565b908152604080516020928190038301902060009485529091529091205460ff1692915050565b600081815260208190526040902060030154606090829060ff16610b585760405162461bcd60e51b8152600401610350906110f5565b600081815260208190526040902060010154421115610b895760405162461bcd60e51b815260040161035090611121565b600083604051602001610bb891815270636f6e666964656e7469616c5f6461746160781b602082015260310190565b604051602081830303815290604052805190602001209050600360008281526020019081526020016000208054610bee90611024565b80601f0160208091040260200160405190810160405280929190818152602001828054610c1a90611024565b8015610c675780601f10610c3c57610100808354040283529160200191610c67565b820191906000526020600020905b815481529060010190602001808311610c4a57829003601f168201915b505050505092505050919050565b634e487b7160e01b600052604160045260246000fd5b604051601f8201601f1916810167ffffffffffffffff81118282101715610cb457610cb4610c75565b604052919050565b60006020808385031215610ccf57600080fd5b823567ffffffffffffffff80821115610ce757600080fd5b818501915085601f830112610cfb57600080fd5b813581811115610d0d57610d0d610c75565b8060051b9150610d1e848301610c8b565b8181529183018401918481019088841115610d3857600080fd5b938501935b83851015610d5657843582529385019390850190610d3d565b98975050505050505050565b600060208284031215610d7457600080fd5b5035919050565b60005b83811015610d96578181015183820152602001610d7e565b50506000910152565b60008151808452610db7816020860160208601610d7b565b601f01601f19169290920160200192915050565b602081526000825160a06020840152610de760c0840182610d9f565b90506020840151604084015260408401516060840152606084015115156080840152608084015160a08401528091505092915050565b602081526000610e306020830184610d9f565b9392505050565b600067ffffffffffffffff831115610e5157610e51610c75565b610e64601f8401601f1916602001610c8b565b9050828152838383011115610e7857600080fd5b828260208301376000602084830101529392505050565b600082601f830112610ea057600080fd5b610e3083833560208501610e37565b60008060008060808587031215610ec557600080fd5b84359350602085013567ffffffffffffffff811115610ee357600080fd5b610eef87828801610e8f565b949794965050505060408301359260600135919050565b60008060408385031215610f1957600080fd5b82359150602083013567ffffffffffffffff811115610f3757600080fd5b8301601f81018513610f4857600080fd5b610f5785823560208401610e37565b9150509250929050565b8315158152606060208201526000610f7c6060830185610d9f565b9050826040830152949350505050565b600060208284031215610f9e57600080fd5b813567ffffffffffffffff811115610fb557600080fd5b610fc184828501610e8f565b949350505050565b60008060408385031215610fdc57600080fd5b823567ffffffffffffffff811115610ff357600080fd5b610fff85828601610e8f565b95602094909401359450505050565b634e487b7160e01b600052603260045260246000fd5b600181811c9082168061103857607f821691505b60208210810361046557634e487b7160e01b600052602260045260246000fd5b600080835461106681611024565b6001828116801561107e5760018114611093576110c2565b60ff19841687528215158302870194506110c2565b8760005260208060002060005b858110156110b95781548a8201529084019082016110a0565b50505082870194505b50929695505050505050565b6000600182016110ee57634e487b7160e01b600052601160045260246000fd5b5060010190565b60208082526012908201527153657373696f6e206e6f742061637469766560701b604082015260600190565b6020808252600f908201526e14d95cdcda5bdb88195e1c1a5c9959608a1b604082015260600190565b6000825161115c818460208701610d7b565b9190910192915050565b601f8211156111b057600081815260208120601f850160051c8101602086101561118d5750805b601f850160051c820191505b818110156111ac57828155600101611199565b5050505b505050565b815167ffffffffffffffff8111156111cf576111cf610c75565b6111e3816111dd8454611024565b84611166565b602080601f83116001811461121857600084156112005750858301515b600019600386901b1c1916600185901b1785556111ac565b600085815260208120601f198616915b8281101561124757888601518255948401946001909101908401611228565b50858210156112655787850151600019600388901b60f8161c191681555b5050505050600190811b0190555056fea26469706673582212207f87fd5211d99a31b115ce951361da17ef661e3603138db0a29b9eb5c3f2ee0e64736f6c63430008130033",
  "linkReferences": {},
  "deployedLinkReferences": {}
}